:020000040000FA
:100000000C94CB010C94FC010C94FC010C94FC01AD
:100010000C94FC010C94FC010C94FC010C94FC016C
:100020000C94FC010C94FC010C94FC010C94FC015C
:100030000C94FC010C94FC010C94FC010C94FC014C
:100040000C94FC010C94FC010C94CB090C94FC0165
:100050000C94FC010C94FC010C94FC010C945D08C4
:100060000C94FC010C9427080C94FD070C94FC01E3
:100070000C94FC010C94CC090C94FC010C94FC0134
:100080000C94FC010C94FC010C94FC010C94FC01FC
:100090000C94FC010C94FC010C94FC010C94A7083A
:1000A0000C94FC010C94FC010C94FC010C94FC01DC
:1000B0000C94FC010C94FC010C94FC010C94FC01CC
:1000C0000C94FC010C94FC010C94FC010C94FC01BC
:1000D0000C94FC010C94FC010C94FC010C94FC01AC
:1000E0000C94FC0105A84CCDB2D44EB93836A90207
:1000F0000C50B9918688083CA6AAAA2ABE00000026
:10010000803F08000000BE922449123EABAAAA2AF2
:10011000BECDCCCC4C3E00000080BEABAAAAAA3E0D
:1001200000000000BF000000803F00000000000849
:100130004178D3BB4387D1133D190E3CC3BD4282E6
:10014000AD2B3E68EC8276BED98FE1A93E4C80EFA4
:10015000FFBE01C4FF7F3F00000000000C9493032A
:100160000C945E020C9474060C941D0A0C94960276
:100170000C94F4050C94F3050C947F030C94520337
:100180000C9477030C946D030C947B030C9458032C
:100190000C94B0040C94DD040C94FF010C94FE014B
:1001A0000C9464030C9492030C9486040C94A9049C
:1001B0000C9471030C9450020C945C030C94970300
:1001C0000C9460030C942D020C9487040C9485030A
:1001D0000C948D030C9467030C94E3020C94890334
:1001E0000C9400020C9496040C943C020000220033
:1001F000250028002B002E003100340002010000F1
:10020000050108010B0100002100240027002A003D
:100210002D003000330001010000040107010A0134
:1002200000000000F304353F5E836C3FBE147B3F4B
:100230006DC47E3F0FB17F3F43EC7F3F11FB7F3F9B
:10024000C4FE7F3FB1FF7F3FECFF7F3FFBFF7F3F5F
:10025000FFFF7F3F0000803F0000803F0000803FA5
:100260000000803F0000803FF304353F15EFC33EA0
:10027000C2C5473E36BDC83D30FB483DB00AC93C0B
:10028000900E493C880FC93BC60F493BD60FC93A6F
:10029000D90F493ADB0FC939DB0F4939DB0FC938B0
:1002A000DB0F4938BF0FC9370000200023002600AC
:1002B00029002C002F00320000010000030106017C
:1002C00009010505050507050808080802020202DC
:1002D0000A0A0808040404040101010101010101E2
:1002E0000303030303030303040707070C0C0C0CAD
:1002F0000C0C0C0C02020202060606060606060696
:100300000B0B0B0B0B0B0B0B010210202008081022
:100310002040102040800201020108040201010275
:10032000040810204080804020100804020180044E
:1003300002018040201008040201080402010102A9
:1003400004081020408001020408102040800000B2
:100350000A0B02090C0D0E0807030401000000003F
:10036000000000000000000000000000000000008D
:10037000000000000000000000001211100000004A
:10038000000000000000000000000000000000006D
:10039000000000001D0A11241FBECFEFD1E2DEBF16
:1003A000CDBF00E00CBF12E0A0E0B2E0E8E2F0E375
:1003B00000E00BBF02C007900D92A63FB107D9F72E
:1003C00024E1A6EFB2E001C01D92A73AB207E1F71F
:1003D00011E0CBECD1E000E006C021970109802FAD
:1003E000FE010E940A18CA3CD10780E00807A9F75D
:1003F0000E94650A0C9412180C9400000895089548
:10040000AF92BF92CF92DF92EF92FF920F931F9322
:10041000CF93DF936C017B018B01040F151FEB0160
:100420005E01AE18BF08C017D10759F06991D60117
:10043000ED91FC910190F081E02DC6011995892B79
:1004400079F7C501DF91CF911F910F91FF90EF9048
:10045000DF90CF90BF90AF900895FC01538D448DF5
:10046000252F30E0842F90E0821B930B541710F05F
:10047000CF96089501970895FC01918D828D98176C
:1004800061F0A28DAE0FBF2FB11D5D968C91928D44
:100490009F5F9F73928F90E008958FEF9FEF089575
:1004A000FC01918D828D981731F0828DE80FF11D3E
:1004B000858D90E008958FEF9FEF0895FC01918D59
:1004C000228D892F90E0805C9F4F821B91098F7352
:1004D000992708958DED93E10E945E0221E0892B1A
:1004E00009F420E0822F0895FC01A48DA80FB92FF4
:1004F000B11DA35ABF4F2C91848D90E001968F734C
:100500009927848FA689B7892C93A089B1898C916A
:10051000837080648C93938D848D981306C00288B9
:10052000F389E02D80818F7D80830895EF92FF9283
:100530000F931F93CF93DF93EC0181E0888F9B8D06
:100540008C8D98131AC0E889F989808185FF15C0C0
:100550009FB7F894EE89FF896083E889F9898081E3
:100560008370806480839FBF81E090E0DF91CF91B2
:100570001F910F91FF90EF900895F62E0B8D10E0D4
:100580000F5F1F4F0F731127E02E8C8D8E110CC043
:100590000FB607FCFACFE889F989808185FFF5CF8E
:1005A000CE010E947402F1CFEB8DEC0FFD2FF11DF7
:1005B000E35AFF4FF0829FB7F8940B8FEA89FB89CB
:1005C00080818062CFCFCF93DF93EC01888D882329
:1005D000B9F0AA89BB89E889F9898C9185FD03C0A6
:1005E000808186FD0DC00FB607FCF7CF8C9185FF8B
:1005F000F2CF808185FFEDCFCE010E947402E9CF5A
:10060000DF91CF91089580E090E0892B29F00E943E
:100610006A0281110E94000080E090E0892B49F07D
:1006200080E090E0892B29F00E94000081110E9457
:10063000000080E090E0892B49F080E090E0892B79
:1006400029F00E94000081110E94000080E090E0EB
:10065000892B49F080E090E0892B29F00E9400006E
:1006600081110C94000008958150823108F05AC025
:10067000E82FF0E08827E05CFC4F8F4F0C940A18BD
:1006800060036403520358035C03920367036D0322
:10069000710377037B037F038503890392038D0333
:1006A00093039703809180008F7780938000089553
:1006B000809180008F7DF9CF80918000877FF5CF7A
:1006C00084B58F7784BD089584B58F7DFBCF8091ED
:1006D000B0008F778093B00008958091B0008F7D37
:1006E000F9CF809190008F7780939000089580914A
:1006F00090008F7DF9CF80919000877FF5CF80911A
:10070000A0008F778093A00008958091A0008F7D36
:10071000F9CF8091A000877FF5CF809120018F775E
:10072000809320010895809120018F7DF9CF8091E1
:100730002001877FF5CF1F93CF93DF93282F30E0E1
:10074000F901E25BFC4F8491F901E85FFC4FD49121
:10075000F901EE53FD4FC491CC23A9F0162F81115E
:100760000E943403EC2FF0E0EE0FFF1FE451FE4F28
:10077000A591B4918FB7F894EC91111108C0D09560
:10078000DE23DC938FBFDF91CF911F910895DE2B85
:10079000F8CF3FB7F8948091AD039091AE03A0914C
:1007A000AF03B091B00326B5A89B05C02F3F19F049
:1007B0000196A11DB11D3FBFBA2FA92F982F8827E1
:1007C000BC01CD01620F711D811D911D42E0660FBC
:1007D000771F881F991F4A95D1F708958F929F928E
:1007E000AF92BF92CF92DF92EF92FF924B015C01EA
:1007F0000E94C9036B017C010E94C9036C197D0929
:100800008E099F09683E734081059105A8F321E098
:10081000821A9108A108B10888EEC80E83E0D81E9C
:10082000E11CF11C81149104A104B10429F7FF908B
:10083000EF90DF90CF90BF90AF909F908F900895F2
:1008400020915E03260F3327331F21323105ECF44C
:1008500020918203FC0190E080E0243069F082E086
:100860000895A0915E032191AC01425C5C4FA40FFE
:10087000B52FB11D2C930196861798F380915E03D6
:10088000680F60935E0380E0089581E00895109200
:10089000820381E0809384031092830361E084E10A
:1008A0000E949B0361E085E10E949B03E9EBF0E07D
:1008B00080818E7F808380818D7F808388E4809398
:1008C000B80085E48093BC000895CF93DF9391E056
:1008D00090933D038823B9F0C091B800D091BA003D
:1008E0008091BC008A7B8093BC0060E084E10E9420
:1008F0009B0360E085E10E949B030E944704D09324
:10090000BA00C093B800DF91CF9108950895E091A7
:10091000B8038091B703E81730F4F0E0E85EFC4FCD
:10092000808190E008958FEF9FEF08959091B80334
:100930008091B7032FEF3FEF981748F4E92FF0E0CD
:10094000E85EFC4F208130E09F5F9093B803C901BF
:1009500008958091B7039091B803891B990B08956E
:10096000CF92DF92EF92FF920F931F93CF93DF937B
:100970007C01CB018A0120911703222389F0EB012E
:100980006B01C40ED51ECC15DD0569F06991D70148
:10099000ED91FC910190F081E02DC7011995F3CF05
:1009A000642F0E942004C801DF91CF911F910F9105
:1009B000FF90EF90DF90CF900895CF93DF931F9239
:1009C000CDB7DEB76983209117032223F9F0209178
:1009D000B503203258F021E030E0FC01338322835C
:1009E00090E080E00F90DF91CF9108958091B60361
:1009F000E82FF0E0E950FD4F998190838F5F80935D
:100A0000B6038093B50381E090E0ECCF61E0CE01C6
:100A100001960E942004F7CFCF92DF92EF92FF92CF
:100A20000F931F93CF93DF93FC01C48121E02093A8
:100A30001703C093F6021092B6031092B503838594
:100A4000682B8AE794E10E94DD04D091B503D1328E
:100A500008F092C00E94C9036B017C01809182035F
:100A6000811165C082E08093820381E080938403DA
:100A70008FEF809381031092A603D093A503A7EF75
:100A8000B2E0E5E8F3E080E0D81385C01092A70358
:100A90008091A703CC0FC82BC093A7038091830339
:100AA000813009F07CC0109283030E94C9036B015E
:100AB0007C018091A7038093BB00809139039091C2
:100AC0003A03A0913B03B0913C03892B8A2B8B2BDB
:100AD00099F00E94C9030091390310913A032091C3
:100AE0003B0330913C036C197D098E099F09061761
:100AF000170728073907E0F18091BC0083FDD9CFA3
:100B000085EC8093BC000E94C9036B017C0180913D
:100B10008203823009F445C0809181038F3F61F1E7
:100B200080918103803241F18091810325C08091C1
:100B3000390390913A03A0913B03B0913C03892B78
:100B40008A2B8B2B09F48ACF0E94C90300913903A9
:100B500010913A0320913B0330913C036C197D09BD
:100B60008E099F09061717072807390708F076CF5F
:100B7000809138030E9465041092B6031092B50369
:100B800010921703DF91CF911F910F91FF90EF907B
:100B9000DF90CF9008959D9191938F5F75CF85EEF3
:100BA000B0CF8091390390913A03A0913B03B0916B
:100BB0003C03892B8A2B8B2B09F4A9CF0E94C903F4
:100BC0000091390310913A0320913B0330913C038B
:100BD0006C197D098E099F09061717072807390721
:100BE00008F095CFC5CF089590E080E00895EAE73A
:100BF000F0E088E9808380818460808380E4809352
:100C00007C0085E080937B008081806280830895F2
:100C10000F931F93CF938C01C62F0E940C056C2F4E
:100C20006460C8010E940C056C2F6B7FC8010E9494
:100C30000C0583EC90E00197F1F7CF911F910F9194
:100C400008950F931F93CF93DF938C01C62FD42F5A
:100C5000607F642B0E9408066C2F6295607F6D2B6D
:100C6000C801DF91CF911F910F910C940806CF938B
:100C7000DF9300D000D01F921F92CDB7DEB798E06F
:100C8000E0E0F2E0DE01119601900D929A95E1F715
:100C900090918E14961710F46FEF690F262F30E0A5
:100CA000220F331F41E050E04C0F5D1F240F351F12
:100CB000F9016081680F606840E086E894E1289659
:100CC0000FB6F894DEBF0FBECDBFDF91CF910C946D
:100CD000210640E061E086E894E10E9421068BE372
:100CE0009FE10197F1F7089541E00E94210681E01C
:100CF00090E00895FB0101900020E9F73197AF01E2
:100D0000461B570BDC01ED91FC910280F381E02D35
:100D100019948F929F92AF92BF92EF92FF920F938E
:100D20001F93CF93DF93CDB7DEB7A1970FB6F8949B
:100D3000DEBF0FBECDBF7C01FA01CB0119A222306C
:100D400008F42AE08E010F5D1F4F822E912CB12CEA
:100D5000A12CBF01A50194010E946414F901CA01EC
:100D60006A300CF5605DD8016E938D01232B242B26
:100D7000252B79F790E080E0109721F0BD01C701A5
:100D80000E947A06A1960FB6F894DEBF0FBECDBFC3
:100D9000DF91CF911F910F91FF90EF90BF90AF9097
:100DA0009F908F900895695CDECF2F923F924F9273
:100DB0005F926F927F928F929F92AF92BF92CF92EB
:100DC000DF92EF92FF921F93CF93DF93EC016A01C2
:100DD0007B01722EAB019601CB01B6010E94B517C3
:100DE00068E872E0811126C046015701E894B7F81F
:100DF0002FEF3FEF4FE75FE7C501B4010E94B51742
:100E000081110CC02FEF3FEF4FE75FE7C501B40141
:100E10000E9402156CE872E0181664F02FEF3FEFA5
:100E20004FE75FE4C701B6010E94A5161816B4F497
:100E300060E972E0CE01DF91CF911F91FF90EF90BA
:100E4000DF90CF90BF90AF909F908F907F906F90EA
:100E50005F904F903F902F900C947A062FEF3FEFCA
:100E60004FE75FECC701B6010E94021587FDE0CF96
:100E700020E030E0A901C701B6010E940215312C23
:100E8000212C87FF0DC0E881F9810190F081E02DD0
:100E90006DE2CE0119951C01F7FAF094F7F8F09481
:100EA00010E060E070E080E09FE3711641F020E028
:100EB00030E040E251E40E940C151F5FF6CFA7011D
:100EC00096010E9496142B013C010E9485154B014E
:100ED0005C012AE0BC01A401CE010E9489067C01CC
:100EE000E20CF31C1123E1F1C501B4010E94B41519
:100EF0009B01AC01C301B2010E9495144B015C013E
:100F0000E881F9810190F081E02D6EE2CE01199522
:100F1000E80EF91E115020F120E030E040E251E4EB
:100F2000C501B4010E9402172B013C010E948515E6
:100F30004B01B12CA12C2AE0B501A401CE010E94E5
:100F40008906E80EF91EC501B4010E94B4159B0183
:100F5000AC01C301B2010E9495144B015C01DACFD0
:100F6000C701DF91CF911F91FF90EF90DF90CF905D
:100F7000BF90AF909F908F907F906F905F904F90B9
:100F80003F902F9008950C947A0685ED8093BC00D5
:100F90008091390390913A03A0913B03B0913C03B7
:100FA0000796A11DB11D23E0B695A7959795879546
:100FB0002A95D1F72091BC0024FD03C01092820332
:100FC00008954091390350913A0360913B03709129
:100FD0003C03452B462B472B69F30097A105B10530
:100FE00041F025E32A95F1F700000197A109B10925
:100FF000E1CF809138030C9465041F920F920FB6D5
:101000000F9211240BB60F922F933F934F935F9340
:101010006F937F938F939F93AF93BF93EF93FF93C0
:101020008DED93E10E947402FF91EF91BF91AF911A
:101030009F918F917F916F915F914F913F912F91F0
:101040000F900BBE0F900FBE0F901F9018951F9220
:101050000F920FB60F9211240BB60F922F938F930E
:101060009F93EF93FF93E091ED13F091EE13808146
:10107000E091F313F091F41382FD1DC090818091F3
:10108000F6138F5F8F732091F713821741F0E09171
:10109000F613F0E0E352FC4E958F8093F613FF9128
:1010A000EF919F918F912F910F900BBE0F900FBEDC
:1010B0000F901F9018958081F2CF1F920F920FB65C
:1010C0000F9211242F933F938F939F93AF93BF93CE
:1010D0008091A9039091AA03A091AB03B091AC03B6
:1010E0003091A80323E0230F2D3758F50196A11D59
:1010F000B11D2093A8038093A9039093AA03A09302
:10110000AB03B093AC038091AD039091AE03A0917B
:10111000AF03B091B0030196A11DB11D8093AD0343
:101120009093AE03A093AF03B093B003BF91AF9180
:101130009F918F913F912F910F900FBE0F901F9015
:10114000189526E8230F0296A11DB11DD2CF1F923C
:101150000F920FB60F9211240BB60F922F933F935D
:101160004F935F936F937F938F939F93AF93BF93AF
:10117000EF93FF938091B900887F803609F44DC0CA
:1011800008F040C0883209F4A9C028F5803109F47C
:101190009DC0C8F4882309F4FBC0883009F496C0C8
:1011A000FF91EF91BF91AF919F918F917F916F913F
:1011B0005F914F913F912F910F900BBE0F900FBEFB
:1011C0000F901F901895883109F488C0803241F73C
:1011D0008093810314C0803409F49DC040F48033AF
:1011E000B9F38833E9F68093810385ECB0C080358C
:1011F00009F485C0883509F496C0883489F60E94C0
:10120000C507CECF883909F48CC038F5883729F066
:1012100050F4883611F0803719F683E0809382030A
:101220001092800357C0883809F47BC0803919F0C8
:10123000803809F0B5CF80918003803208F071C00A
:10124000E091800381E08E0F809380038091BB004A
:10125000F0E0E05AFC4F80833DC0803B39F0E0F481
:10126000803A09F479C0883A09F09ACF84E08093F3
:10127000820310925F0310925E03E091B303F0913A
:10128000B403199580915E0381110FC081E08093B2
:101290005E0310923E0309C0803C09F4A6CF883C4F
:1012A00009F4A3CF883B09F07BCFE0915F0381E095
:1012B0008E0F80935F03F0E0E25CFC4F80818093AF
:1012C000BB0090915F0380915E0329C08091A703CA
:1012D0008093BB0085EC8093BC0062CF9091A60305
:1012E0008091A503981758F5E091A60381E08E0F31
:1012F0008093A603F0E0EB57FC4F8081E9CFE091AB
:10130000A60381E08E0F8093A6038091BB00F0E0DE
:10131000EB57FC4F80839091A6038091A50398170B
:10132000C8F285E8D8CFE091A60381E08E0F8093C4
:10133000A6038091BB00F0E0EB57FC4F80838091C7
:10134000840381115CCF81E08093830384EA8093DE
:10135000BC001092820324CF85EC8093BC001092D5
:10136000820380918003803230F4E0918003F0E0CA
:10137000E05AFC4F10826091800370E0E091B1036D
:10138000F091B20380E693E019951092800308CFA4
:101390001092810334CF18951F920F920FB60F92BF
:1013A00011240BB60F922F933F934F935F936F933C
:1013B0007F938F939F93AF93BF93CF93DF93EF93DD
:1013C000FF9360917800709179008091DB13909188
:1013D000DC139C012F5F3F4F3093DC132093DB1312
:1013E000880F991F880F991FEC01C552D44F90E0C8
:1013F00080E00E94B415688379838A839B838091FF
:10140000DB139091DC138115924011F410927A0055
:10141000FF91EF91DF91CF91BF91AF919F918F910C
:101420007F916F915F914F913F912F910F900BBEE4
:101430000F900FBE0F901F901895EDEDF3E1138202
:10144000128288EE93E0A0E0B0E084839583A683C7
:10145000B7832CE532E03183208325EC30E03587FB
:10146000248724EC30E03787268720EC30E0318B6E
:10147000208B21EC30E0338B228B22EC30E0358B5B
:10148000248B26EC30E0378B268B118E128E138E38
:10149000148EEAE7F4E11382128284839583A68393
:1014A000B7838EE692E091838083E6E8F4E11382CD
:1014B000128280E892E09183808387E2848384E1D2
:1014C000818784E0828713860895CF93DF93CDB719
:1014D000DEB7C458D1090FB6F894DEBF0FBECDBF3A
:1014E000789484B5826084BD84B5816084BD85B5FF
:1014F000826085BD85B5816085BD80916E0081600B
:1015000080936E00109281008091810082608093B0
:1015100081008091810081608093810080918000B2
:101520008160809380008091B10084608093B100DD
:101530008091B00081608093B000809191008260C2
:1015400080939100809191008160809391008091BF
:1015500090008160809390008091A10082608093D0
:10156000A1008091A10081608093A1008091A000E2
:1015700081608093A000809121018260809321018D
:1015800080912101816080932101809120018160FF
:101590008093200180917A00846080937A0080910A
:1015A0007A00826080937A0080917A0081608093D3
:1015B0007A0080917A00806880937A001092C1004E
:1015C000E091ED13F091EE1382E08083E091E91356
:1015D000F091EA131082E091EB13F091EC1380E1AB
:1015E00080831092F513E091F113F091F21386E0ED
:1015F0008083E091EF13F091F0138081806180830C
:10160000E091EF13F091F013808188608083E09186
:10161000EF13F091F013808180688083E091EF13E5
:10162000F091F01380818F7D808364E972E08DED0D
:1016300093E10E947A066AE972E08DED93E10E94DF
:101640007A06E8E3F3E02491E2EFF2E08491882364
:10165000C9F090E0880F991FFC01EA5FFD4FA5914A
:10166000B491FC01E451FE4F459154913FB7F89479
:101670009C91822F809598239C93DA019C918923D9
:101680008C933FBFE5E1F3E02491EFECF2E084912D
:10169000882399F090E0880F991FFC01EA5FFD4FC5
:1016A000A591B491FC01E451FE4F859194918FB7BF
:1016B000F894EC91E22BEC938FBF8BED9BE0EBED7C
:1016C000F3E0EC96FFAFEEAFEC97EC96AEADBFADAE
:1016D000EC971D921D921D921D92EC96BFAFAEAF7E
:1016E000EC978A179B0789F710928000109281006F
:1016F00010928500109284008AE080938100A4E01B
:10170000FA2EF0926F0088E390E090938900809326
:1017100088000E94F7051092B8031092B703109248
:10172000B6031092B5030E9447048EEF91E09093A8
:10173000B4038093B3038FEF91E09093B20380934F
:10174000B10380918B14886080938B14F0928E1477
:101750008BE39DE00197F1F76091911486E894E1A5
:101760000E940C0568EE73E080E090E00E94EE03BA
:1017700060E386E894E10E9408060BE416E4C801E1
:101780000197F1F760E386E894E10E940806C8013A
:101790000197F1F760E386E894E10E94080683E58B
:1017A00092E00197F1F760E286E894E10E94080672
:1017B00060918B14606240E086E894E10E9421060B
:1017C000F0928C1440E06CE086E894E10E942106DF
:1017D0000E94690682E080938D1440E066E086E80E
:1017E00094E10E94210640E062E086E894E10E94D4
:1017F00021068BE39FE10197F1F720919014E3E933
:10180000F4E180E09FEF281719F091938F5FFBCFF1
:1018100000E010E0FE01399680E07F019FE118179B
:1018200008F490E092938F5F8830C1F740E0602F1A
:10183000606486E894E10E942106FE0131966F0102
:10184000D6016D916D0186E894E10E947406EC1456
:10185000FD04B1F71F5F085F1830E1F68091901426
:1018600020918F14E82FF0E0ED56FB4E9FEF82178A
:1018700018F491938F5FFBCF81E08093921488E0FE
:101880008093911460E086E894E10E940C050E9428
:1018900069060E9469066DE972E086E894E10E949B
:1018A000C30761E082E00E94370663EA72E086E8DF
:1018B00094E10E94C30762E085E00E94370664EB72
:1018C00072E086E894E10E94C30763E081E00E9431
:1018D000370660EC72E086E894E10E94C30768EC8A
:1018E00070E080E090E00E94EE038091DB13909125
:1018F000DC1381159240C8F3EBEDFBE0EE96FFAFF1
:10190000EEAFEE978F0160E070E0CB01D8012D9132
:101910003D914D915D918D010E949614B3E10B3D77
:101920001B07A1F720E030E040E05BE30E940217D4
:101930004B015C01EBEDFBE06B96FFAFEEAF6B97FD
:101940006B96AEADBFAD6B976D917D918D919D9175
:101950006B96BFAFAEAF6B977D01B4E0EB1AF108A9
:10196000A50194010E949514F7016083718382831D
:1019700093836B962EAD3FAD6B970217130701F75C
:10198000EBEDEE2EE3E1FE2EFBEDCF2EFBE0DF2EA6
:1019900010E000E0B80190E080E00E94B41520E083
:1019A00030E84FEF53E40E940C152BED3FE049EC7B
:1019B00050E40E9402170E9407159B01AC0160E0F1
:1019C00070E080E89FE30E94951421E73DE34AE040
:1019D0005FE30E9402174B015C01AC019B01D60141
:1019E0006D917D918D919C910E940217F6016193FA
:1019F0007193819391936F01A5019401D7019E91F9
:101A00008E917E916E917D010E940217F701608395
:101A10007183828393830F5F1F4F0115F1E01F07CE
:101A200009F0B8CFEBEDFBE030E020E090E080E0A3
:101A30001DC028173907C8F4DC01AA0FBB1FAA0F65
:101A4000BB1FA552B44F4481558166817781CD90EB
:101A5000DD90ED90FC901397C482D582E682F782E8
:101A60004D935D936D937C931397349640E051E0D2
:101A70008417950728F0841B950B56954795F8CF4A
:101A8000840F951F2F5F3F4F2F3F41E0340789F6AA
:101A900069961FAE1EAE6997A1961CAE1DAE1EAE16
:101AA0001FAEA197AC961FAEAC97AE961FAEAE9789
:101AB00050E8AF965FAFAF978FEBE0968FAFE097B0
:101AC000A1E0B0E06796BFAFAEAF67976796EEADA7
:101AD000FFAD6797EE0FFF1FEA96FFAFEEAFEA97F5
:101AE00067962EAD3FAD679783E0220F331F8A952F
:101AF000E1F7E2963FAF2EAFE29767964EAD5FAD4E
:101B00006797440F551F440F551FE4965FAF4EAFC4
:101B1000E4978BED93E0A7969FAF8EAFA797ABEDC1
:101B2000BBE0A396BFAFAEAFA397412C512C3201BF
:101B3000312C212C10E80FE36D961FAE1EAE6D9771
:101B40006D96EEADFFAD6D9767962EAD3FAD679785
:101B5000E217F30709F465C1A7964EAD5FADA797ED
:101B600065965FAF4EAF6597A3968EAD9FADA39779
:101B700063969FAF8EAF6397A596FFAFEEAFA59725
:101B8000A596AEADBFADA597A115B24008F0DEC0D9
:101B900063962EAD3FAD6397E4964EAD5FADE4978F
:101BA000240F351FE6963FAF2EAFE697D9018D90F3
:101BB0009D90AD90BC906596EEADFFAD6597E40F3E
:101BC000F51FE896FFAFEEAFE897208131814281A3
:101BD0005381AB962CAF3DAF4EAF5FAFAB97232D8C
:101BE000322D412F502FC501B4010E9402176B0105
:101BF0007C01A3019201AB966CAD7DAD8EAD9FAD26
:101C0000AB970E9402179B01AC01C701B6010E946D
:101C100095146B017C01AB962CAD3DAD4EAD5FAD27
:101C2000AB97632D722D812F902F0E940217AB96D8
:101C30006CAF7DAF8EAF9FAFAB97A3019201C50193
:101C4000B4010E9402179B01AC01AB966CAD7DAD57
:101C50008EAD9FADAB970E9496144B015C01A7011E
:101C600096016396EEADFFAD6397608171818281CD
:101C700093810E949514E696AEADBFADE6976D9345
:101C80007D938D939C931397A50194016596EEAD7A
:101C9000FFAD659760817181828193810E94951467
:101CA000E896AEADBFADE8976D937D938D939C9311
:101CB0001397A70196016396EEADFFAD6397608120
:101CC0007181828193810E9496146396AEADBFADFF
:101CD00063976D937D938D939C931397A5019401C6
:101CE0006596EEADFFAD65976081718182819381CC
:101CF0000E9496146596AEADBFAD65976D937D93CA
:101D00008D939C931397A596EEADFFADA597EA969C
:101D10002EAD3FADEA97E20FF31FA596FFAFEEAFF2
:101D2000A59763964EAD5FAD6397E2968EAD9FAD7E
:101D3000E297480F591F63965FAF4EAF6397A80FA6
:101D4000B91F6596BFAFAEAF65971ACFAC962FADF2
:101D5000AC97AE963FADAE97AF964FADAF97E096CE
:101D60005FADE097632D722D812F902F0E94021797
:101D70006B017C01A3019201A1966CAD7DAD8EAD8E
:101D80009FADA1970E9402179B01AC01C701B6014C
:101D90000E9495146B017C01AC962FADAC97AE966A
:101DA0003FADAE97AF964FADAF97E0965FADE09782
:101DB000C301B2010E9402174B015C01232D322D99
:101DC000412F502FA1966CAD7DAD8EAD9FADA197EB
:101DD0000E940217A50194010E9496142B013C0158
:101DE0006D96AEADBFAD6D9711966D96BFAFAEAFB0
:101DF0006D97A396EEADFFADA3973496A396FFAF74
:101E0000EEAFA397A7962EAD3FADA7972C5F3F4FA0
:101E1000A7963FAF2EAFA7973C2C2D2C1E2D0F2D34
:101E20008FCE6996EEADFFAD6997EC59FD4F859168
:101E30009591A591B4916996EEADFFAD6997E05E7D
:101E4000FD4F4591559165917491AC964FAFAC970C
:101E5000AE965FAFAE97AF966FAFAF97E0967FAF9E
:101E6000E0979C01AD015058A1962CAF3DAF4EAF0D
:101E70005FAFA19769964EAD5FAD69974C5F5F4FBD
:101E800069965FAF4EAF6997EA968EAD9FADEA97C0
:101E900067969FAF8EAF67974432510509F016CE13
:101EA0001BEDA12E13E0B12E0BED1BE0D8016D91BF
:101EB0007D918D919D918D01F501C190D190E19021
:101EC000F1905F019B01AC010E9402172B013C01C4
:101ED000A7019601C701B6010E9402179B01AC0140
:101EE000C301B2010E9496140E947517F80134973D
:101EF00060837183828393836B962EAD3FAD6B9726
:101F00000217130799F6BBEDEB2EBBE0FB2E10E09A
:101F100000E0B80190E080E00E94B41520E038EBCA
:101F200048E057E40E94021720E030E040E05BE325
:101F30000E940217AB01BC0126E08DED93E10E94E7
:101F4000D50664ED72E08DED93E10E94C30767ED65
:101F500072E08DED93E10E94C307D7014D915D9131
:101F60006D917D917D0124E08DED93E10E94D50678
:101F70006AE972E08DED93E10E947A060F5F1F4FD0
:101F80000115B1E01B0729F66AE972E08DED93E1D6
:101F90000E947A06E091C5036696EFAF6697F091CE
:101FA000C6036896FFAF68972091C7036A962FAF64
:101FB0006A973091C8036C963FAF6C974091C1030C
:101FC0006E964FAF6E975091C203A2965FAFA297E5
:101FD0008091C303A4968FAFA4979091C403A69653
:101FE0009FAFA6976090BD037090BE03A091BF0302
:101FF0006296AFAF6297B091C0036496BFAF64972B
:102000002090B9033090BA034090BB035090BC03BA
:10201000E091C903CF57DF4FE883C158D040F0911A
:10202000CA03CE57DF4FF883C258D0402091CB036C
:10203000CD57DF4F2883C358D0403091CC03CC57C5
:10204000DF4F3883C458D0404091CD03AE964FAF98
:10205000AE975091CE03AF965FAFAF978091CF030D
:10206000E0968FAFE0979091D003E1969FAFE19714
:10207000A091D103E396AFAFE397B091D203E59679
:10208000BFAFE597E091D303E796EFAFE797F09105
:10209000D403E996FFAFE9972091D503A8962FAF17
:1020A000A8973091D603EF963FAFEF974091D703B3
:1020B000C158DF4F4883CF57D0405091D803C05804
:1020C000DF4F5883C058D0408BED9BE0AD969FAF5B
:1020D0008EAFAD97912C812CB40190E080E00E94EE
:1020E000B41520E038EB48E057E40E94021720E0E6
:1020F00030E040E05BE30E9402175B018C01AD968B
:10210000AEADBFADAD97CD90DD90ED90FD90AD96AD
:10211000BFAFAEAFAD9766962FAD669768963FADF1
:1021200068976A964FAD6A976C965FAD6C97C701DA
:10213000B6010E94A51618160CF4FDC06E962FADC0
:102140006E97A2963FADA297A4964FADA497A69680
:102150005FADA697C701B6010E94A51618160CF42C
:1021600007C1930162964FAD629764965FAD649725
:10217000C701B6010E94A51618160CF412C19101F0
:10218000A201C701B6010E94A51618160CF41DC1C4
:10219000BFEF8B1A9B0A8114E1E09E0609F09CCFE9
:1021A000CF57DF4F8881C158D040CE57DF4F98813D
:1021B000C258D040CD57DF4FA881C358D040CC572C
:1021C000DF4FB881C458D0408093C9039093CA03AD
:1021D000A093CB03B093CC03C101D2018093B90388
:1021E0009093BA03A093BB03B093BC03AE968FAD9C
:1021F000AE97AF969FADAF97E096AFADE097E19603
:10220000BFADE1978093CD039093CE03A093CF030E
:10221000B093D003C3016296AFAD62976496BFAD31
:1022200064978093BD039093BE03A093BF03B093C4
:10223000C003E3968FADE397E5969FADE597E796EC
:10224000AFADE797E996BFADE9978093D10390933F
:10225000D203A093D303B093D4036E968FAD6E9741
:10226000A2969FADA297A496AFADA497A696BFAD38
:10227000A6978093C1039093C203A093C303B09326
:10228000C403A8968FADA897EF969FADEF97C1585E
:10229000DF4FA881CF57D040C058DF4FB881C0581A
:1022A000D0408093D5039093D603A093D703B093E7
:1022B000D80366968FAD669768969FAD68976A96C5
:1022C000AFAD6A976C96BFAD6C978093C503909342
:1022D000C603A093C703B093C8031092DC131092F7
:1022E000DB13EEE7F3E08491E8E3F3E00491E2EF3F
:1022F000F2E01491112309F48CC081110E9434037F
:10230000E12FF0E0EE0FFF1FE855FD4FA591B491CE
:102310008C91082309F47DC08091D9039091DA0350
:10232000009709F069C021E030E03093DA03209390
:10233000D90361E06BC06696CFAE66976896DFAE54
:1023400068976A96EFAE6A976C96FFAE6C97A89600
:10235000AFAEA897EF96BFAEEF97C158DF4F088397
:10236000CF57D040C058DF4F1883C058D04010CF4F
:102370006E96CFAE6E97A296DFAEA297A496EFAE02
:10238000A497A696FFAEA697E396AFAEE397E59621
:10239000BFAEE597E7960FAFE797E9961FAFE997CE
:1023A000F7CE36016296EFAE62976496FFAE649701
:1023B000AE96AFAEAE97AF96BFAEAF97E0960FAF0B
:1023C000E097E1961FAFE197E3CE16012701CF57C3
:1023D000DF4FA882C158D040CE57DF4FB882C258D5
:1023E000D040CD57DF4F0883C358D040CC57DF4F84
:1023F0001883C458D040CCCE019709F0C0C042E049
:1024000050E05093DA034093D90360E08DE00E94DE
:102410009B038091D9039091DA038130910509F0F3
:10242000B3C00E94690660E080E00E9437060E9407
:10243000690660E080E00E94370669ED72E086E898
:1024400094E10E94C3074091D5035091D603609157
:10245000D7037091D80322E086E894E10E94D50664
:1024600064ED72E086E894E10E94C30761E080E0D9
:102470000E9437066DED72E086E894E10E94C30782
:102480004091D1035091D2036091D3037091D40352
:1024900022E086E894E10E94D50664ED72E086E8C9
:1024A00094E10E94C30762E080E00E94370661EE7B
:1024B00072E086E894E10E94C3074091CD035091F9
:1024C000CE036091CF037091D00322E086E894E1BF
:1024D0000E94D50664ED72E086E894E10E94C3078D
:1024E00063E080E00E94370665EE72E086E894E1E2
:1024F0000E94C3074091C9035091CA036091CB0366
:102500007091CC0322E086E894E10E94D50664ED48
:1025100072E086E894E10E94C3071092C50310920E
:10252000C6031092C7031092C8031092C103109201
:10253000C2031092C3031092C4031092BD03109201
:10254000BE031092BF031092C0031092B903109201
:10255000BA031092BB031092BC03EBEDF3E01192AF
:10256000119211921192EC964EAD5FADEC974E1711
:102570005F07A9F70E94F7050E940303B6C91092EE
:10258000DA031092D903D5CE009709F093C00E94C8
:10259000690660E080E00E94370669ED72E086E837
:1025A00094E10E94C3074091D5035091D6036091F6
:1025B000D7037091D80322E086E894E10E94D50603
:1025C00064ED72E086E894E10E94C30761E085E073
:1025D0000E94370669EE72E086E894E10E94C30724
:1025E00020E030E543E457E46091C5037091C603F1
:1025F0008091C7039091C8030E940C150E94AA16EF
:1026000020E030E040EA51E40E940217AB01BC0137
:1026100022E086E894E10E94D5066DEE72E086E83D
:1026200094E10E94C30762E080E00E9437066DEDEE
:1026300072E086E894E10E94C3074091D103509173
:10264000D2036091D3037091D40322E086E894E131
:102650000E94D50664ED72E086E894E10E94C3070B
:1026600063E085E00E94370661EF72E086E894E15E
:102670000E94C30720E030E543E457E46091C103C2
:102680007091C2038091C3039091C4030E940C1502
:102690000E94AA1620E030E040EA51E40E940217AE
:1026A000AB01BC0122E086E894E10E94D5066DEE04
:1026B00072E02FCF029709F030CF0E94690680E5C3
:1026C000E8E0F2E0DE01119601900D928A95E1F7C3
:1026D000C12CD12C76014601570110E054E0159F22
:1026E000F001112481E090E08C0F9D1FE80FF91F8D
:1026F0004080518062807380A3019201C501B401C2
:102700000E94021587FF25C0EE96AEADBFADEE97D5
:102710002D913D914D915C91C701B6010E94961497
:102720006B017C0120E030E040E85FE3C501B401CB
:102730000E9496144B015C01EE96EEADFFADEE9754
:102740003496EE96FFAFEEAFEE97EB5DFF4031F6BD
:10275000E4CEA3019201C701B6010E940C150E94AC
:102760007E159B01AC01AFE1B0E00E94591420E25C
:102770003EE440E050E00E943A14C22E00919014D2
:10278000043008F050C00150D0908F141D1508F48B
:102790004CC0DA94402F50E0CA0101968530910573
:1027A00014F084E090E0382FBC01E3E0660F771F5F
:1027B000EA95E1F7261717062CF0C82ECC0CCC0CA6
:1027C000CC0CCA946D2D70E0FB01EA57FB4E7F01E3
:1027D0002585481B590B81E0800F831B24171506A4
:1027E00029F024F0802F201708F4822FD7011D969E
:1027F0008C93809192148130B1F58C2D86958695BD
:102800008695A02EA81AA01691F0BB24BA94B00EFB
:10281000602F8D2D0E94370667E086E894E10E94C4
:1028200074060B2DF0CF03E0AFCFD12EB3CF602FC6
:102830008D2D0E9437066C2D677086E894E10E940A
:102840007406F701C584C01658F46C2D8D2D0E94B6
:10285000370660E286E894E10E947406C394F3CFE1
:10286000D7011D960C931F5F812C912C540175018B
:10287000640162CF052E97FB1EF400940E94511450
:1028800057FD07D00E94641407FC03D04EF40C944B
:10289000511450954095309521953F4F4F4F5F4FC4
:1028A000089590958095709561957F4F8F4F9F4FBC
:1028B00008950E948614A59F900DB49F900DA49F2B
:1028C000800D911D11240895A1E21A2EAA1BBB1B95
:1028D000FD010DC0AA1FBB1FEE1FFF1FA217B307EC
:1028E000E407F50720F0A21BB30BE40BF50B661F02
:1028F000771F881F991F1A9469F7609570958095C6
:1029000090959B01AC01BD01CF010895A29FB0013C
:10291000B39FC001A39F700D811D1124911DB29F13
:10292000700D811D1124911D08955058BB27AA27B1
:102930000E94AD140C9457160E941E1638F00E9487
:10294000251620F039F49F3F19F426F40C941B1639
:102950000EF4E095E7FB0C941516E92F0E947C1607
:1029600058F3BA17620773078407950720F079F4C4
:10297000A6F50C949E160EF4E0950B2EBA2FA02D02
:102980000B01B90190010C01CA01A0011124FF271C
:10299000591B99F0593F50F4503E68F11A16F04017
:1029A000A22F232F342F4427585FF3CF4695379516
:1029B0002795A795F0405395C9F77EF41F16BA0BDB
:1029C000620B730B840BBAF09150A1F0FF0FBB1F89
:1029D000661F771F881FC2F70EC0BA0F621F731FD2
:1029E000841F48F4879577956795B795F7959E3F2F
:1029F00008F0B0CF9395880F08F09927EE0F9795C0
:102A0000879508950E94F11508F481E008950E94C9
:102A10002E16E3950C9468160E9420150C945716F8
:102A20000E94251658F00E941E1640F029F45F3FC0
:102A300029F00C94151651110C949F160C941B162A
:102A40000E947C1668F39923B1F3552391F3951BEB
:102A5000550BBB27AA2762177307840738F09F5FBF
:102A60005F4F220F331F441FAA1FA9F335D00E2E2C
:102A70003AF0E0E832D091505040E695001CCAF799
:102A80002BD0FE2F29D0660F771F881FBB1F26175C
:102A900037074807AB07B0E809F0BB0B802DBF0133
:102AA000FF2793585F4F3AF09E3F510578F00C9402
:102AB00015160C949F165F3FE4F3983ED4F3869569
:102AC00077956795B795F7959F5FC9F7880F911D23
:102AD0009695879597F90895E1E0660F771F881F0F
:102AE000BB1F621773078407BA0720F0621B730BC2
:102AF000840BBA0BEE1F88F7E09508950E948515A8
:102B00006894B1110C949F1608950E94841688F061
:102B10009F5798F0B92F9927B751B0F0E1F0660FA1
:102B2000771F881F991F1AF0BA95C9F714C0B130E2
:102B300091F00E949E16B1E008950C949E16672FA6
:102B4000782F8827B85F39F0B93FCCF38695779511
:102B50006795B395D9F73EF49095809570956195FA
:102B60007F4F8F4F9F4F0895E89409C097FB3EF425
:102B700090958095709561957F4F8F4F9F4F9923CA
:102B8000A9F0F92F96E9BB279395F6958795779548
:102B90006795B795F111F8CFFAF4BB0F11F460FF08
:102BA0001BC06F5F7F4F8F4F9F4F16C0882311F060
:102BB00096E911C0772321F09EE8872F762F05C074
:102BC000662371F096E8862F70E060E02AF09A950F
:102BD000660F771F881FDAF7880F9695879597F904
:102BE0000895990F0008550FAA0BE0E8FEEF16169E
:102BF0001706E807F907C0F012161306E407F507F1
:102C000098F0621B730B840B950B39F40A2661F064
:102C1000232B242B252B21F408950A2609F4A14007
:102C2000A6958FEF811D811D089597F99F6780E814
:102C300070E060E008959FEF80EC089500240A940E
:102C40001616170618060906089500240A94121687
:102C500013061406050608950C941B160E9484168C
:102C6000D8F3E894E0E0BB279F57F0F02AED3FE06F
:102C700049EC06C0EE0FBB0F661F771F881F28F0B8
:102C8000B23A62077307840728F0B25A620B730BDB
:102C9000840BE3959A9572F7803830F49A95BB0FC0
:102CA000661F771F881FD2F790480C94BC17092E17
:102CB0000394000C11F4882352F0BB0F40F4BF2B97
:102CC00011F460FF04C06F5F7F4F8F4F9F4F0895D7
:102CD000EF93E0FF07C0A2EA2AED3FE049EC5FEB8B
:102CE0000E94AD140E9457160F90039401FC905857
:102CF000E4EEF0E00C94F61757FD9058440F551F82
:102D000059F05F3F71F04795880F97FB991F61F06D
:102D10009F3F79F087950895121613061406551FE4
:102D2000F2CF4695F1DF08C0161617061806991F50
:102D3000F1CF86957105610508940895E894BB2745
:102D400066277727CB0197F908950E94F11508F4BB
:102D50008FEF08950E94BA1629ED3BE54EED5EE334
:102D60000C94021716F00C94BA170C941B16689466
:102D70000C9415160E948416A8F39923C1F3AEF3A0
:102D8000DF93CF931F930F93FF92C92FDD278823E3
:102D90002AF02197660F771F881FDAF720E030E0CE
:102DA00040E85FEB9FE3883920F0803E38F02196C1
:102DB0008F770E949614E2E0F1E004C00E9496141E
:102DC000EFE2F1E00E94CF178B01BE01EC01FB2E78
:102DD0006F5771097595771F880B990B0E94B6156F
:102DE00028E132E741E35FE30E941517AF2D980118
:102DF000AE01FF900F911F91CF91DF910E94AD1412
:102E00000C9457160E9415170C9457160E941E1604
:102E100038F00E94251620F0952311F00C94151619
:102E20000C941B1611240C949F160E947C1670F3B0
:102E3000959FC1F3950F50E0551F629FF001729F5F
:102E4000BB27F00DB11D639FAA27F00DB11DAA1F6E
:102E5000649F6627B00DA11D661F829F2227B00DBB
:102E6000A11D621F739FB00DA11D621F839FA00D46
:102E7000611D221F749F3327A00D611D231F849F96
:102E8000600D211D822F762F6A2F11249F575040ED
:102E90009AF0F1F088234AF0EE0FFF1FBB1F661F68
:102EA000771F881F91505040A9F79E3F510580F031
:102EB0000C9415160C949F165F3FE4F3983ED4F3E0
:102EC000869577956795B795F795E7959F5FC1F7D5
:102ED000FE2B880F911D9695879597F9089519F403
:102EE00016F40C941B160C94BA170E948416B8F3AF
:102EF0009923C9F3B6F39F57550B87FF0E94C81754
:102F00000024A0E640EA900180585695979528F451
:102F1000805C660F771F881F20F026173707480749
:102F200030F4621B730B840B202931294A2BA695A0
:102F300017940794202531254A2758F7660F771FE5
:102F4000881F20F026173707480730F4620B730BF1
:102F5000840B200D311D411DA09581F7B901842FEF
:102F60009158880F9695879508950E94F115880BC2
:102F7000990B08959F3F31F0915020F487957795F4
:102F80006795B795880F911D9695879597F9089540
:102F900091505040660F771F881FD2F70895DF9336
:102FA000CF931F930F93FF92EF92DF927B018C01DF
:102FB000689406C0DA2EEF010E941517FE01E8940E
:102FC000A5912591359145915591A6F3EF010E9468
:102FD000AD14FE019701A801DA9469F7DF90EF9034
:102FE000FF900F911F91CF91DF9108959F938F9341
:102FF0007F936F93FF93EF939B01AC010E940217A5
:10300000EF91FF910E94CF172F913F914F915F91C8
:103010000C940217EE0FFF1F881F8BBF0790F691CD
:10302000E02D1994F894FFCF0000400014005400E4
:103030000000803F00000040000000400000004011
:103040000000004000000040000000400000804000
:103050000000804000008040000080400000804070
:1030600000008040000080400000804000000041DF
:103070000000804100000042000058420000C842A9
:1030800000000000960200022D02E3025E023C02F4
:10309000500200000000DD04B004F4058604A90419
:1030A000960487040000000074060002F405F3058E
:1030B0006E616E00696E66006F76660052656164CF
:1030C00079000D0A0048656E6C6F005370656B7473
:1030D000726F6D6574722046616C6900416B757327
:1030E0007479637A6E656A006279204D61636965FF
:1030F0006A2053696C6B6F77736B6900487A0020A4
:103100000066303D0066313D0066323D0066333D6D
:0E3110000041303D002064420041313D00008E
:10E000000D9489F10D94B2F10D94B2F10D94B2F129
:10E010000D94B2F10D94B2F10D94B2F10D94B2F1F0
:10E020000D94B2F10D94B2F10D94B2F10D94B2F1E0
:10E030000D94B2F10D94B2F10D94B2F10D94B2F1D0
:10E040000D94B2F10D94B2F10D94B2F10D94B2F1C0
:10E050000D94B2F10D94B2F10D94B2F10D94B2F1B0
:10E060000D94B2F10D94B2F10D94B2F10D94B2F1A0
:10E070000D94B2F10D94B2F10D94B2F10D94B2F190
:10E080000D94B2F10D94B2F10D94B2F10D94B2F180
:10E090000D94B2F10D94B2F10D94B2F10D94B2F170
:10E0A0000D94B2F10D94B2F10D94B2F10D94B2F160
:10E0B0000D94B2F10D94B2F10D94B2F10D94B2F150
:10E0C0000D94B2F10D94B2F10D94B2F10D94B2F140
:10E0D0000D94B2F10D94B2F10D94B2F10D94B2F130
:10E0E0000D94B2F141546D656761323536300041AF
:10E0F000726475696E6F206578706C6F72657220DE
:10E1000073746B3530305632206279204D4C530099
:10E11000426F6F746C6F616465723E004875683F52
:10E1200000436F6D70696C6564206F6E203D200048
:10E130004350552054797065202020203D20005FF9
:10E140005F4156525F415243485F5F3D2000415658
:10E1500052204C696243205665723D20004743437C
:10E160002056657273696F6E203D20004350552024
:10E1700049442020202020203D20004C6F7720663D
:10E18000757365202020203D20004869676820665F
:10E190007573652020203D200045787420667573D6
:10E1A00065202020203D20004C6F636B2066757336
:10E1B000652020203D20004D617220203720323024
:10E1C000313300312E362E3800342E332E350056A2
:10E1D00023202020414444522020206F7020636F70
:10E1E00064652020202020696E73747275637469E1
:10E1F0006F6E2061646472202020496E74657272B3
:10E20000757074006E6F20766563746F7200726A49
:10E210006D702020006A6D70200057686174207056
:10E220006F72743A00506F7274206E6F7420737541
:10E2300070706F72746564004D7573742062652030
:10E2400061206C6574746572002000577269747483
:10E25000696E672045450052656164696E672045B7
:10E26000450045452065727220636E743D00504F35
:10E27000525400303D5A65726F2061646472003FF1
:10E280003D43505520737461747300403D454550C3
:10E29000524F4D207465737400423D426C696E6B41
:10E2A000204C454400453D44756D70204545505215
:10E2B0004F4D00463D44756D7020464C415348001B
:10E2C000483D48656C70004C3D4C69737420492F83
:10E2D0004F20506F72747300513D51756974005234
:10E2E0003D44756D702052414D00563D73686F7707
:10E2F00020696E7465727275707420566563746FF0
:10E30000727300593D506F727420626C696E6B00BD
:10E310002A0011241FBECFEFD1E2DEBFCDBF01E046
:10E320000CBF12E0A0E0B2E0EEE1FDEF03E00BBFB6
:10E3300002C007900D92A030B107D9F712E0A0E01B
:10E34000B2E001C01D92AE30B107E1F70F9460F367
:10E350000D948DFE01E20EBF0FEF0DBF11241FBE05
:10E360000D9460F30D9400F020E030E040ED57E0B4
:10E3700005C0FA013197F1F72F5F3F4F2817390792
:10E38000C0F308959C01260F311DC901A0E0B0E043
:10E390002F5F3F4FABBFFC018791882361F08093D3
:10E3A000C6008091C00086FFFCCF8091C0008064D1
:10E3B0008093C000EACF08958DE08093C6008091DD
:10E3C000C00086FFFCCF8091C00080648093C000B5
:10E3D0008AE08093C6008091C00086FFFCCF8091C8
:10E3E000C00080648093C00008950F94C2F10F9420
:10E3F000DCF10895FC019081992359F09093C600B7
:10E400008091C00086FFFCCF8091C0008064809323
:10E41000C0003196992379F70895282F982F929567
:10E420009F70892F805D8A3308F0895F8093C600D2
:10E430008091C00086FFFCCF8091C00080648093F3
:10E44000C000822F8F70982F905D9A3308F0995FEB
:10E450009093C6008091C00086FFFCCF8091C000E1
:10E4600080648093C00008959C01FB01853691056E
:10E470001CF46330710594F0C90164E670E00F94F8
:10E480002EFE605D7F4F6093C6008091C00086FFC6
:10E49000FCCF8091C00080648093C0002B30310598
:10E4A00014F43297B4F0C90164E670E00F942EFEC4
:10E4B0006AE070E00F942EFE605D7F4F6093C600AF
:10E4C0008091C00086FFFCCF8091C0008064809363
:10E4D000C000C9016AE070E00F942EFEC0968093E0
:10E4E000C6008091C00086FFFCCF8091C000806490
:10E4F0008093C00008951F93182F8EE692EE60E07F
:10E500000F94C2F11093C6008091C00086FFFCCF2B
:10E510008091C00080648093C0000F94DCF11F9153
:10E5200008952F923F924F925F926F927F928F92B7
:10E530009F92AF92BF92CF92DF92EF92FF920F9392
:10E540001F93DF93CF93CDB7DEB762970FB6F894E2
:10E55000DEBF0FBECDBF382E622ECA01DB015C01CB
:10E560006D01772420E2222E2E010894411C511CBB
:10E570008BC081E0A81680E0B80681E0C80680E084
:10E58000D80628F0C601AA27BB270F940DF2BB2797
:10E59000AD2D9C2D8B2D0F940DF28A2D0F940DF225
:10E5A0002092C6008091C00086FFFCCF8091C00001
:10E5B00080648093C0009DE29093C6008091C0006B
:10E5C00086FFFCCF8091C00080648093C0002092C1
:10E5D000C6008091C00086FFFCCF8091C00080649F
:10E5E0008093C00019828601750188249924A1E0D6
:10E5F0003A1651F03A1620F0B2E03B1661F409C029
:10E600000BBFF701779007C0C7010F9477FE782EF4
:10E6100002C0F7017080872D0F940DF22092C60082
:10E620008091C00086FFFCCF8091C0008064809301
:10E63000C000872D8052F401EF70F0708F3520F408
:10E64000E40DF51D708204C0E40DF51D8EE280839B
:10E650000894E11CF11C011D111D0894811C911CE2
:10E6600090E18916910409F0C2CF80E190E0A0E02A
:10E67000B0E0A80EB91ECA1EDB1E198AC2010F9493
:10E68000FAF10F94DCF16A94662009F072CF629679
:10E690000FB6F894DEBF0FBECDBFCF91DF911F91B3
:10E6A0000F91FF90EF90DF90CF90BF90AF909F9031
:10E6B0008F907F906F905F904F903F902F90089534
:10E6C0002F923F924F925F926F927F928F929F9282
:10E6D000AF92BF92CF92DF92EF92FF920F931F9370
:10E6E000DF93CF93CDB7DEB7CD53D1400FB6F894BB
:10E6F000DEBF0FBECDBF01E20EBF0FEF0DBF94B75F
:10E70000F894A89514BE80916000886180936000A1
:10E7100010926000789493FF05C0E0910002F091A0
:10E7200001021995279A2F9A8091C00082608093E8
:10E73000C00080E18093C40088E18093C1000000A4
:10E74000EE24FF24870144E0A42EB12CCC24DD2448
:10E7500024C0C5010197F1F70894E11CF11C011DCB
:10E76000111D21E2E2162EE4F20620E0020720E06D
:10E77000120718F031E0C32ED12CC801B70127ECE5
:10E780003BE140E050E00F9441FE611571058105C9
:10E79000910519F485B1805885B98091C00087FD35
:10E7A00003C0C114D104A9F2A6014F5F5F4FC25E3E
:10E7B000DE4F59834883CE51D140C25EDE4F8881FF
:10E7C0009981CE51D140019711F00D9410FEC05D9A
:10E7D000DE4F19821882C053D14060E0C15DDE4F28
:10E7E0001882CF52D14088249924C35DDE4F19820C
:10E7F0001882CD52D140C05EDE4F188219821A8233
:10E800001B82C052D140CE5CDE4F188219821A8220
:10E810001B82C253D140EE24FF2487010BBFF701B6
:10E8200007911691C45CDE4F19830883CC53D14005
:10E830000D940BFEC25EDE4F28813981CE51D1404E
:10E840002130310509F52091C600C25EDE4F1982E4
:10E850001882CE51D14022C02F5F3F4F4F4F5F4FA4
:10E86000213082E138078AE7480780E0580780F0C6
:10E87000C45CDE4FE881F981CC53D140EF5FFF4F9C
:10E8800019F0EE27FF27099420E030E040E050E047
:10E890008091C00087FFE0CF2091C600C35DDE4FAE
:10E8A00048815981CD52D1404F5F5F4FC35DDE4FEC
:10E8B00059834883CD52D140213209F063C64A3092
:10E8C000510508F05FC60894811C911C53E0851621
:10E8D000910409F059C600E010E018C081E280936D
:10E8E000C6008091C00086FFFCCF8091C00080648C
:10E8F0008093C0002F5F3F4F2931310579F70F9486
:10E90000DCF10F5F1F4F0530110519F020E030E0FA
:10E91000E5CF10920A0210920B0210920C02109294
:10E920000D02109206021092070210920802109235
:10E930000902109202021092030210920402109235
:10E9400005028FEE90EE60E00F94F5F180E191EE1C
:10E9500060E00F94C2F18091C00087FFFCCF9091DE
:10E96000C600903608F09F759032B8F09093C600BC
:10E970008091C00086FFFCCF8091C00080648093AE
:10E98000C000A0E2A093C6008091C00086FFFCCF2B
:10E990008091C00080648093C000983409F4D7C18E
:10E9A0009934B8F4923409F459C1933458F490333B
:10E9B00019F1903308F4E3C59F33A1F1903409F0C5
:10E9C000DEC5BDC0953409F470C1963409F0D7C5D1
:10E9D00098C1923509F42BC2933538F49C3409F46C
:10E9E000F5C1913509F0CBC518C2963509F445C279
:10E9F000993509F0C4C567C483E792EE62E00F94CD
:10EA0000F5F110920602109207021092080210927D
:10EA1000090210920A0210920B0210920C0210923C
:10EA20000D0213C18FE792EE62E00F94F5F18FEEC5
:10EA300090EE60E00F94F5F181E291EE60E00F94CA
:10EA4000C2F187EB91EE60E00F94F5F180E391EE77
:10EA500060E00F94C2F184EE90EE60E00F94F5F167
:10EA60008FE391EE60E00F94C2F186E090E061E008
:10EA700070E00F9434F20F94DCF18DE591EE60E0DC
:10EA80000F94C2F189EC91EE60E00F94F5F18EE401
:10EA900091EE60E00F94C2F183EC91EE60E00F9490
:10EAA000F5F18CE691EE60E00F94C2F18EE10F94E7
:10EAB0000DF288E90F940DF281E00F940DF20F949E
:10EAC000DCF18BE791EE60E00F94C2F119E0E0E039
:10EAD000F0E010935700E4918E2F0F940DF20F94F5
:10EAE000DCF18AE891EE60E00F94C2F1E3E0F0E03F
:10EAF00010935700E4918E2F0F940DF20F94DCF1D8
:10EB000089E991EE60E00F94C2F1E2E0F0E0109349
:10EB10005700E4918E2F0F940DF20F94DCF188EAE8
:10EB200091EE60E00F94C2F1E1E0F0E01093570045
:10EB30001491812F0F940DF20F94DCF107CF8BE825
:10EB400092EE62E00F94F5F18BE492EE60E00F94A8
:10EB5000F5F10F94DCF100E010E019C0C8016F2D51
:10EB60000F947FFEFF2031F489E492EE60E00F9471
:10EB7000C2F10BC0F092C6008091C00086FFFCCFAE
:10EB80008091C00080648093C0000F5F1F4FC80158
:10EB900081519F41A0E0B0E0ABBFFC01F790BAE229
:10EBA000FB1621F0E2E000301E07C1F60F94DCF105
:10EBB0000F94DCF187E592EE60E00F94F5F10F948D
:10EBC000DCF1CC24DD2400E010E01EC0C8010F946D
:10EBD00077FEF82E882331F489E492EE60E00F94FA
:10EBE000C2F10BC08093C6008091C00086FFFCCFAD
:10EBF0008091C00080648093C000FE1419F00894D6
:10EC0000C11CD11C0F5F1F4FC80181519F41A0E063
:10EC1000B0E0ABBFFC01E790FAE2EF1621F022E092
:10EC20000030120799F60F94DCF10F94DCF182E6C4
:10EC300092EE60E00F94C2F1C60161E070E00F94C3
:10EC400034F20F94DCF10F94DCF110920202109276
:10EC50000302109204021092050278CE89E992EE26
:10EC600062E00F94F5F1279A2F9A16C02F9880E052
:10EC700090E0E0EDF7E03197F1F7019684369105E9
:10EC8000C1F72F9A80E090E0E0EDF7E03197F1F7DF
:10EC9000019684369105C1F78091C00087FFE6CFC9
:10ECA0008091C00087FFFCCF64C485EA92EE62E0E9
:10ECB0000F94F5F140910202509103026091040219
:10ECC0007091050281E020E10F9491F2809102029F
:10ECD00090910302A0910402B091050280509F4FD1
:10ECE000AF4FBF4F8093020290930302A0930402A0
:10ECF000B093050280509041A040B04008F426CE69
:10ED0000A4CF83EB92EE62E00F94F5F140910602FE
:10ED100050910702609108027091090280E020E1A1
:10ED20000F9491F28091060290910702A09108023F
:10ED3000B091090280509F4FAF4FBF4F80930602A2
:10ED400090930702A0930802B0930902FFCD80ECD4
:10ED500092EE62E00F94F5F183E792EE60E00F949B
:10ED6000F5F18FE792EE60E00F94F5F18BE892EE0B
:10ED700060E00F94F5F189E992EE60E00F94F5F10F
:10ED800085EA92EE60E00F94F5F183EB92EE60E09D
:10ED90000F94F5F180EC92EE60E00F94F5F187ECC2
:10EDA00092EE60E00F94F5F188ED92EE60E00F9442
:10EDB000F5F18FED92EE60E00F94F5F18AEE92EEB0
:10EDC00060E00F94F5F183E093EEBDCD87EC92EE19
:10EDD00062E00F94F5F181E40F947BF282E40F94EA
:10EDE0007BF283E40F947BF284E40F947BF285E45E
:10EDF0000F947BF286E40F947BF287E40F947BF20E
:10EE000088E40F947BF28AE40F947BF28BE40F94F6
:10EE10007BF28CE40F947BF299CD88ED92EE62E068
:10EE20000F94F5F1772473948824992409C48FED05
:10EE300092EE62E00F94F5F140910A0250910B02BC
:10EE400060910C0270910D0282E020E10F9491F22A
:10EE500080910A0290910B02A0910C02B0910D02D8
:10EE600080509F4FAF4FBF4F80930A0290930B0289
:10EE7000A0930C02B0930D0269CD8AEE92EE62E08F
:10EE80000F94F5F184EE90EE60E00F94F5F18FECC5
:10EE900091EE60E00F94F5F1662477244301CC5D98
:10EEA000DE4F19821882C452D140D401C301B695F5
:10EEB000A79597958795CA5DDE4F88839983AA8326
:10EEC000BB83C652D140CC5DDE4FA881B981C4520C
:10EED000D1401196CC5DDE4FB983A883C452D14096
:10EEE000CD0162E070E00F9434F2B0E2B093C6005E
:10EEF0008091C00086FFFCCF8091C0008064809329
:10EF0000C000EDE2E093C6008091C00086FFFCCF18
:10EF10008091C00080648093C000F0E2F093C6004E
:10EF20008091C00086FFFCCF8091C00080648093F8
:10EF3000C000CA5DDE4FE880F9800A811B81C6529D
:10EF4000D140BB27A12F902F8F2D0F940DF2CA5DBA
:10EF5000DE4F8881C652D1400F940DF2B0E2FB2EF5
:10EF6000F092C6008091C00086FFFCCF8091C00067
:10EF700080648093C0000DE30093C6008091C000C0
:10EF800086FFFCCF8091C00080648093C00010E2B7
:10EF90001093C6008091C00086FFFCCF8091C00016
:10EFA00080648093C0008BBEF3012791C65DDE4F65
:10EFB0002883CA52D140A22EBB24CC24DD2408943D
:10EFC000611C711C811C911C8BBEF3018791282E42
:10EFD0003324442455240894611C711C811C911C09
:10EFE0008BBEF3013791C55DDE4F3883CB52D140E4
:10EFF0000894611C711C811C911C8BBEF30147910C
:10F00000C45DDE4F4883CC52D140ADEFEA2EAFEF66
:10F01000FA2EAFEF0A2FAFEF1A2F6E0C7F1C801E57
:10F02000911E142D032DF22CEE24EA0CFB1C0C1D5A
:10F030001D1D0F940DF220E22093C6008091C000A8
:10F0400086FFFCCF8091C00080648093C000C65DC5
:10F05000DE4F8881CA52D1400F940DF230E23093D6
:10F06000C6008091C00086FFFCCF8091C000806404
:10F070008093C000C45DDE4F8881CC52D1400F9494
:10F080000DF240E24093C6008091C00086FFFCCFA5
:10F090008091C00080648093C000C55DDE4F888190
:10F0A000CB52D1400F940DF250E25093C6008091A4
:10F0B000C00086FFFCCF8091C00080648093C000B8
:10F0C0008FEFE8168FEFF80680E0080780E018075A
:10F0D00031F484E092EE60E00F94C2F1DFC0D80119
:10F0E000C7018070907CA070B0708050904CA040A0
:10F0F000B040D1F52FEF3FE340E050E0E222F322B1
:10F1000004231523CA5DDE4FA880B980CA80DB8046
:10F11000C652D140AE0CBF1CC01ED11EAA0CBB1CD7
:10F12000CC1CDD1C8EE092EE60E00F94C2F1BB2798
:10F13000A12F902F8F2D0F940DF28E2D0F940DF285
:10F1400030E23093C6008091C00086FFFCCF8091F2
:10F15000C00080648093C0004EE34093C60080915D
:10F16000C00086FFFCCF87C08EE09EEFA0E0B0E03D
:10F17000E822F9220A231B239CE0E91694E9F90608
:10F1800090E0090790E0190709F088C0C45DDE4FE0
:10F19000A881CC52D140EA2EFF2400E010E0102FCD
:10F1A0000F2DFE2CEE24C55DDE4FB881CB52D14031
:10F1B000EB0EF11C011D111DD601C501817090706F
:10F1C000A070B070DC0199278827E80EF91E0A1F8D
:10F1D0001B1F20EF30E040E050E0A222B322C42207
:10F1E000D52241E1AA0CBB1CCC1CDD1C4A95D1F7F1
:10F1F000EA0CFB1C0C1D1D1D81E090E0A0E0B0E0BE
:10F20000282239224A225B2235E1220C331C441C7D
:10F21000551C3A95D1F7E20CF31C041D151D57013E
:10F220006801AA0CBB1CCC1CDD1C85E192EE60E0E1
:10F230000F94C2F1C801AA27BB270F940DF2BB2778
:10F24000A12F902F8F2D0F940DF28E2D0F940DF274
:10F2500090E29093C6008091C00086FFFCCF809121
:10F26000C00080648093C000AEE3A093C60080918C
:10F27000C00086FFFCCF8091C00080648093C000F6
:10F28000C601AA27BB270F940DF2BB27AD2D9C2DDD
:10F290008B2D0F940DF28A2D0F940DF20F94DCF14B
:10F2A000CC5DDE4FE881F981C452D140F99709F471
:10F2B0004DCBF4E0EF2EF12C012D112D6E0C7F1CA7
:10F2C000801E911EF2CD83E093EE62E00F94F5F183
:10F2D0008AE192EE60E00F94C2F18091C00087FF56
:10F2E000FCCF1091C6001F751093C6008091C0001E
:10F2F00086FFFCCF8091C00080648093C0000F9493
:10F30000DCF1812F81548A3108F036C1163409F4BA
:10F3100095C0173490F4133409F44EC0143430F40B
:10F320001134F1F0123409F01DC130C0143409F465
:10F3300059C0153409F016C16BC01A3409F4C4C0A1
:10F340001B3438F4173409F48FC0183409F00AC19B
:10F35000A1C01B3409F4D2C01C3409F003C1E8C0B9
:10F360008FEF81B90DC082B1809582B980E090E0C5
:10F37000E0EDF7E03197F1F70196883C9105C1F790
:10F380008091C00087FFEFCF12B8EFC08FEF84B934
:10F390000DC085B1809585B980E090E0E0EDF7E0A3
:10F3A0003197F1F70196883C9105C1F78091C00033
:10F3B00087FFEFCF15B8D9C08FEF87B90DC088B1DF
:10F3C000809588B980E090E0E0EDF7E03197F1F7C3
:10F3D0000196883C9105C1F78091C00087FFEFCF6F
:10F3E00018B8C3C08FEF8AB90DC08BB180958BB9A7
:10F3F00080E090E0E0EDF7E03197F1F70196883C8E
:10F400009105C1F78091C00087FFEFCF1BB8ADC059
:10F410008FEF8DB90DC08EB180958EB980E090E0F0
:10F42000E0EDF7E03197F1F70196883C9105C1F7DF
:10F430008091C00087FFEFCF1EB897C08FEF80BBD1
:10F440000DC081B3809581BB80E090E0E0EDF7E0F6
:10F450003197F1F70196883C9105C1F78091C00082
:10F4600087FFEFCF11BA81C08FEF83BB0DC084B38C
:10F47000809584BB80E090E0E0EDF7E03197F1F714
:10F480000196883C9105C1F78091C00087FFEFCFBE
:10F4900014BA6BC08FEF809301010FC080910201FD
:10F4A00080958093020180E090E0E0EDF7E03197F5
:10F4B000F1F70196883C9105C1F78091C00087FF64
:10F4C000EDCF1092020151C08FEF809304010FC065
:10F4D0008091050180958093050180E090E0E0ED4A
:10F4E000F7E03197F1F70196883C9105C1F78091DB
:10F4F000C00087FFEDCF1092050137C08FEF8093DA
:10F5000007010FC08091080180958093080180E079
:10F5100090E0E0EDF7E03197F1F70196883C910536
:10F52000C1F78091C00087FFEDCF109208011DC088
:10F530008FEF80930A010FC080910B01809580931B
:10F540000B0180E090E0E0EDF7E03197F1F70196F4
:10F55000883C9105C1F78091C00087FFEDCF1092E4
:10F560000B0103C085E292EEEEC98091C00087FFD7
:10F57000FCCF8091C600EAC988E392EEE4C98CE131
:10F5800091EEE1C988249924933011F1943028F444
:10F59000913089F09230B8F408C0953061F195301F
:10F5A000F0F0963009F048C043C02B3109F042C951
:10F5B00091E06BE13FC96227C15DDE4F2883CF52E6
:10F5C000D14092E037C9B22FA0E0622793E032C960
:10F5D000822F90E0A82BB92B622794E02BC92E3004
:10F5E00009F039C3622795E0C05DDE4F19821882A9
:10F5F000C053D1401FC9E1E0F0E0EC0FFD1FC05D3A
:10F60000DE4F08811981C053D140E00FF11F2083E4
:10F610000F5F1F4FC05DDE4F19830883C053D14079
:10F6200062270A171B0709F005C9D80196E002C92D
:10F63000261709F010C303C0973009F0FBC87724E0
:10F640009981933109F412C19431C8F4963009F4C8
:10F65000D8C0973050F4923009F406C1933009F4C1
:10F660006DC0913009F059C253C0913109F477C08F
:10F67000923108F0BBC0903109F04FC2F5C098310B
:10F6800009F487C0993150F4953109F4EFC09531F0
:10F6900008F4C6C1963109F040C2C2C19A3109F4DA
:10F6A0006CC09A3108F491C09B3109F45BC09D3164
:10F6B00009F033C29D81903359F48F81882311F46E
:10F6C0009EE11CC0813011F091E018C098E916C08D
:10F6D000892F807591F0903539F4E0E0F0E089E011
:10F6E0008093570094910AC0983539F4E3E0F0E034
:10F6F00089E080935700949101C090E01A821B82A8
:10F700008D818C831D829E831F8227E030E009C299
:10F710001A8288E08B8381E48C8386E58D8382E581
:10F720008E8389E48F8383E5888780E589878FE5E9
:10F730008A8782E38B872BE030E0F3C18A818139AD
:10F7400041F0823941F0803911F48FE005C080E04A
:10F7500003C082E001C08AE01A828B8344C0772410
:10F76000739482C08D81882311F48EE12CC0813086
:10F7700011F081E028C088E926C01A82E1E0F0E0BB
:10F7800089E08093570084918B831C8224E030E0D1
:10F79000C8C18B81803589F48C81883039F4E2E0EE
:10F7A000F0E089E08093570084910DC0E0E0F0E044
:10F7B00089E080935700849106C0E3E0F0E089E09F
:10F7C0008093570084911A82DFCF8D81836C99E0FA
:10F7D000E1E0F0E0082E90935700E89507B600FCB2
:10F7E000FDCF1A821B8223E030E09BC180EC8A832C
:10F7F000CE5CDE4F188219821A821B82C253D1401E
:10F800008EC18A8190E0A0E0B0E0582F44273327D2
:10F8100022278B8190E0A0E0B0E0DC0199278827C7
:10F82000282B392B4A2B5B2B8D8190E0A0E0B0E098
:10F83000282B392B4A2B5B2B8C8190E0A0E0B0E089
:10F84000BA2FA92F982F8827282B392B4A2B5B2BCF
:10F85000220F331F441F551FC05EDE4F288339839C
:10F860004A835B83C052D1401A8259C13A81C95C34
:10F87000DE4F3883C753D140CA5CDE4F1882C6536F
:10F88000D1408B81C82EDD24CA5CDE4F488159816E
:10F89000C653D140C42AD52A933109F082C0CE5C28
:10F8A000DE4F88819981AA81BB81C253D1408050AB
:10F8B000904CA340B04030F583E0CE5CDE4FE88052
:10F8C000F9800A811B81C253D140F70100935B008C
:10F8D00080935700E89507B600FCFDCFCE5CDE4F65
:10F8E000088119812A813B81C253D14000501F4FAA
:10F8F0002F4F3F4FCE5CDE4F088319832A833B8313
:10F90000C253D140C05EDE4F488159816A817B81FC
:10F91000C052D140DE011B9631E08C9111962C91A2
:10F9200011971296C75CDE4F2883C953D140C85C3B
:10F93000DE4F1882C853D14090E0C85CDE4FE881AA
:10F94000F981C853D1408E2B9F2B0C01FA01609393
:10F950005B0030935700E89511244E5F5F4F6F4F67
:10F960007F4F0EEFE02E0FEFF02ECE0CDF1CC114F8
:10F97000D10499F685E0C05EDE4F088119812A81A5
:10F980003B81C052D140F80120935B008093570027
:10F99000E89507B600FCFDCF81E180935700E8951C
:10F9A00035C0C05EDE4F88819981AA81BB81C0527B
:10F9B000D140B695A795979587957C018601ABE0D8
:10F9C000AA2EB12CAC0EBD1E0BC0D5016D915D01F0
:10F9D000C7010F947FFE0894E11CF11C01501040F8
:10F9E0000115110591F7A60160E070E0440F551F65
:10F9F000661F771FC05EDE4FE880F9800A811B8199
:10FA0000C052D1404E0D5F1D601F711F1A82C05E33
:10FA1000DE4F488359836A837B83C052D1407FC0C5
:10FA2000FA80C55CDE4FF882CB53D140C65CDE4F16
:10FA30001882CA53D1408B81C82EDD24C65CDE4FAC
:10FA400008811981CA53D140C02AD12A1A828981DA
:10FA5000BE016D5F7F4F843121F59601C05EDE4FA0
:10FA6000E880F9800A811B81C052D1400BBFF701A9
:10FA700087919691DB018C9311969C936E5F7F4FDB
:10FA8000D801C7010296A11DB11DC05EDE4F88835B
:10FA90009983AA83BB83C052D14022503040F1F6F3
:10FAA00036C0C05EDE4F288139814A815B81C052F9
:10FAB000D1400894C108D108760100E010E0089414
:10FAC000C11CD11C0894E11CF11C011D111DE20E8A
:10FAD000F31E041F151F21BDBB27A52F942F832FB5
:10FAE00082BD2F5F3F4F4F4F5F4FF89A80B5DB01CC
:10FAF0008D93BD012E153F054007510761F7C05E8C
:10FB0000DE4F288339834A835B83C052D1409601FC
:10FB10002D5F3F4FFB01108204C080EC8A8322E0FE
:10FB200030E08BE18093C6008091C00086FFFCCF5F
:10FB30008091C00080648093C000C15DDE4FF88179
:10FB4000CF52D140F093C6008091C00086FFFCCF19
:10FB50008091C00080648093C000432F3093C60022
:10FB60008091C00086FFFCCF8091C00080648093AC
:10FB7000C000922F2093C6008091C00086FFFCCF6A
:10FB80008091C00080648093C0008EE08093C600A6
:10FB90008091C00086FFFCCF8091C000806480937C
:10FBA000C00065E1C15DDE4FE880CF52D1406E25D7
:10FBB00069276427FE01319610C090819093C6009A
:10FBC0008091C00086FFFCCF31968091C000806498
:10FBD0008093C0006927215030402115310569F715
:10FBE0006093C6008091C00086FFFCCF8091C0006A
:10FBF00080648093C00085B1805885B9772081F4F6
:10FC0000C15DDE4F0881CF52D1400F5FC15DDE4F35
:10FC10000883CF52D14090E0A0E0B0E00D941AF4F8
:10FC200027982F9880E090E020ED37E0F901319798
:10FC3000F1F7019684369105C9F700008091C00064
:10FC40008D7F8093C00081E180935700E895EE2777
:10FC5000FF270994FFCF90E00D941AF497FB092E2B
:10FC600007260AD077FD04D02ED006D000201AF443
:10FC7000709561957F4F0895F6F7909581959F4F08
:10FC80000895A1E21A2EAA1BBB1BFD010DC0AA1FDD
:10FC9000BB1FEE1FFF1FA217B307E407F50720F0F5
:10FCA000A21BB30BE40BF50B661F771F881F991F70
:10FCB0001A9469F760957095809590959B01AC01B9
:10FCC000BD01CF010895AA1BBB1B51E107C0AA1FAC
:10FCD000BB1FA617B70710F0A61BB70B881F991FED
:10FCE0005A95A9F780959095BC01CD010895F99991
:10FCF000FECF92BD81BDF89A992780B50895262F31
:10FD0000F999FECF1FBA92BD81BD20BD0FB6F89400
:0EFD1000FA9AF99A0FBE01960895F894FFCF63
:00000001FF
